S010000046697A7A42757A7A2E73726563C6
S315000000007847002051020000690100004D020000FF
S315000000104D0200004D0200004D0200004D0200009E
S315000000200000000000000000000000004D0200007B
S315000000304D020000000000004D0200004D020000CD
S3150000004000000000000000000000000000000000AA
S31500000050000000000000000000000000000000009A
S31500000060000000000000000000000000000000008A
S31500000070000000000000000000000000000000007A
S31500000080000000000000000000000000690E0000F3
S31500000090000000000000000000000000000000005A
S315000000A000000000000000009113000000000000A6
S315000000B0000000000000000000000000000000003A
S315000000C08110000000000000000000000000000099
S315000000D0000000000000000000000000410D0000CC
S315000000E05D0C0000C10C000001380028FCD17047EF
S315000000F070B54143114B124D1B680C00B5FBF3F56F
S31500000100080040F2E8320023002101F0E5FA31B997
S31500000110B0FBF5F0800808B1FFF7E6FF70BDAD0053
S31500000120B4FBF5F040F2E8320023002101F0D4FAE6
S315000001300029F0D001204042EEE7C0462C420020C4
S3150000014000CA9A3B10B5034B8200D35803B19847B7
S3150000015010BDC0463C410020024B800019500020D3
S315000001607047C0463C410020F8B540F240130024D9
S315000001700127084E084A758CD35A1D402B00E340D0
S315000001803B4202D0E0B2FFF7DDFF0134102CF5D17F
S315000001907586F8BDFE600040006000401F224309DE
S315000001A010401E3A8240024960339B005A50704705
S315000001B000E100E0F7B5FF27019283080A4A03260B
S315000001C09B009B183A0040F200350640F600890174
S315000001D0B2403940B1405C59800094430C435C51B5
S315000001E0019A024B1A50F7BD00E100E08041002061
S315000001F01F22430910401E3A824002499B005A5072
S315000002007047C04600E100E010B50400FFF7C6FFE6
S315000002102000FFF7EDFF10BD1F22430910401E3AD4
S315000002208240044920339B005A50BFF34F8FBFF3DF
S315000002306F8F704700E100E010B50400FFF7BAFFCA
S315000002402000FFF7E1FF10BD7047C04600BE7047B3
S3150000025010B500F003F800F047FCFEE770B5002586
S31500000260184B194A00209A6000F022F901F096F91D
S31500000270012000F01DF91548154A0021121A01F057
S315000002806BFB1448144A1549121A01F07DFB144CF5
S31500000290144BE41AA410A5420CDB01F00BF901F093
S315000002A0F9F9022000F004F9FFF7CEFF002001F073
S315000002B011FA70BD0B4AAB009B181B6898470135B5
S315000002C0E9E7C04600ED00E00000000070400020B5
S315000002D078430020004000205C400020702600008B
S315000002E05840002054400020FFFFFFFFFFFFFFFFA4
S315000002F0FFFFFFFFFFFFFFFFFFFFFFFFFFFFFFFF08
S31500000300FFFFFFFFFFFFFFFFFFFFFFFFFFFFFFFFF7
S31500000310FFFFFFFFFFFFFFFFFFFFFFFFFFFFFFFFE7
S31500000320FFFFFFFFFFFFFFFFFFFFFFFFFFFFFFFFD7
S31500000330FFFFFFFFFFFFFFFFFFFFFFFFFFFFFFFFC7
S31500000340FFFFFFFFFFFFFFFFFFFFFFFFFFFFFFFFB7
S31500000350FFFFFFFFFFFFFFFFFFFFFFFFFFFFFFFFA7
S31500000360FFFFFFFFFFFFFFFFFFFFFFFFFFFFFFFF97
S31500000370FFFFFFFFFFFFFFFFFFFFFFFFFFFFFFFF87
S31500000380FFFFFFFFFFFFFFFFFFFFFFFFFFFFFFFF77
S31500000390FFFFFFFFFFFFFFFFFFFFFFFFFFFFFFFF67
S315000003A0FFFFFFFFFFFFFFFFFFFFFFFFFFFFFFFF57
S315000003B0FFFFFFFFFFFFFFFFFFFFFFFFFFFFFFFF47
S315000003C0FFFFFFFFFFFFFFFFFFFFFFFFFFFFFFFF37
S315000003D0FFFFFFFFFFFFFFFFFFFFFFFFFFFFFFFF27
S315000003E0FFFFFFFFFFFFFFFFFFFFFFFFFFFFFFFF17
S315000003F0FFFFFFFFFFFFFFFFFFFFFFFFFFFFFFFF07
S31500000400FFFFFFFFF7AFC1FF44F25C0044F25C035D
S31500000410C2F20000C2F2000310B5834205D040F2DA
S315000004200003C0F2000303B1984710BD44F25C001C
S3150000043044F25C03C2F20000C2F200031B1A9A10D7
S31500000440D90F8918491010B529B140F20003C0F23E
S31500000450000303B1984710BD10B544F27004C2F210
S315000004600004237873B9FFF7CFFF40F20003C0F210
S3150000047000032BB142F26C60C0F2000000E000BF46
S315000004800123237010BDC04640F20003C0F20003F2
S3150000049010B54BB144F2740142F26C60C2F2000135
S315000004A0C0F2000000E000BFFFF7C0FF10BDC0466D
S315000004B010B518B90122054B1A7010BD0228FCD1DF
S315000004C00349044800F072FEF7E7C04690C07E403C
S315000004D05C240000B840002037B56B46074CDD1D94
S315000004E02A000821200000F023FE2A780821534222
S315000004F05A412000D2B200F029FE37BDB840002094
S3150000050037B56B46074CDD1D2A000921200000F097
S315000005100FFE2A78092153425A412000D2B200F038
S3150000052015FE37BDB8400020012370B5064D040006
S315000005302B7001F032FA21000200044800F0ECFAB8
S315000005402B78002BFCD170BDB4400020C0400020A9
S31500000550012310B5064C0A0001000648237000F07E
S31500000560C8FA2378DAB2002BFBD1227010BDC04640
S31500000570B3400020C04000200379012B05D0022B98
S3150000058002D1034B00221A707047024BFAE7C046AD
S31500000590B4400020B340002003790BB9014A137020
S315000005A07047C046B240002010B50400084800F06D
S315000005B0F5FB00230121074AA34203DB044800F0B0
S315000005C0E5FB10BD117010780028FCD10133F3E76C
S315000005D0E4400020B24000200379032B02D1002220
S315000005E0014B1A707047C046B1400020012213B576
S315000005F0054C01900023054801A9227000F016FE63
S315000006002378002BFCD113BDB1400020F840002018
S31500000610F8B5F0260C240E400443264330000D00A6
S31500000620FFF7E4FF0220FFF7BFFF04273000B843BF
S31500000630FFF7DCFFC046FF23BD401D402C432000D2
S31500000640FFF7D4FF0220FFF7AFFF2000B843FFF704
S31500000650CDFFC046F8BD10B50F20FFF7A5FF33212B
S315000006600020FFF7D5FF0520FFF79EFF322100206F
S31500000670FFF7CEFF0520FFF797FF28210020FFF7A1
S31500000680C7FF0520FFF790FF0C210020FFF7C0FFF2
S315000006900520FFF789FF01210020FFF7B9FF10BDF4
S315000006A01FB51400002916DD0121023189010F282A
S315000006B015DD0F200918019100200199FFF7A8FF09
S315000006C0200001F06AF9002303900293029A039B2B
S315000006D09A4208DB1FBDCB43DB171940E5E7C3434E
S315000006E0DB171840E6E7029B0120E156FFF790FF73
S315000006F0029B0133E9E7FFFF0378022B02D10122B7
S31500000700014B1A707047C046B040002010B59EB02D
S315000007103A490AA801F030F90AA8FFF705FF384957
S315000007200AA801F029F90AA8FFF7FEFE04210AA883
S31500000730FFF70EFF0AA800F0FDFF324B3249C01842
S3150000074006900AA801F018F90AA8FFF7EDFE0221A3
S315000007500AA8FFF7FDFE0AA800F0ECFF01382B49B6
S3150000076005900AA801F008F90AA8FFF7DDFE0221A4
S315000007700AA8FFF7EDFE0AA800F0DCFF2449049062
S315000007800AA801F0F9F80AA8FFF7CEFE02210AA886
S31500000790FFF7DEFE0AA800F0CDFF1E4903900AA867
S315000007A001F0EAF80AA8FFF7BFFE02210AA8FFF740
S315000007B0CFFE0AA800F0BEFF174902900AA801F072
S315000007C0DBF80AA8FFF7B0FE02210AA8FFF7C0FE71
S315000007D00AA800F0AFFF114C114901900AA801F0D8
S315000007E0CBF80AA8FFF7A0FE01A9200000F076FBCF
S315000007F00221200000F026FC1EB010BD8022000061
S315000008009222000094F8FFFFA0220000AF22000011
S31500000810BC220000CA220000D72200002C41002082
S31500000820E4220000F0B5A1B003AC2100604800F05E
S315000008309DFB40F26C71626923695218E1680133CD
S3150000084000910CA85B4901F067F80CA8FFF76CFE55
S31500000850039B594900936368A2680CA801F05CF8F1
S315000008600CA8FFF761FE0322039B93FBF2F14A43B8
S31500000870991A934200D18BE0504A514E5148734326
S31500000880514F1B18BB4200D98BE0504B4B4900918E
S315000008900CA84F4901F040F84E4D0CA8FFF744FE56
S315000008A04D48FFF741FE62696B699A420BD040F2F0
S315000008B06C734A49D2180CA801F02EF800210CAA34
S315000008C00800FFF7EDFE22692B699A4209D04449D8
S315000008D001320CA801F020F8002105200CAAFFF730
S315000008E0DFFEE268EB689A4208D03E490CA801F0A8
S315000008F013F8002108200CAAFFF7D2FEA268AB6805
S315000009009A4208D038490CA801F006F801210020C7
S315000009100CAAFFF7C5FE62686B689A4208D0324996
S315000009200CA800F0F9FF012103200CAAFFF7B8FE7E
S31500000930039A2B689A4222D02C490CA800F0ECFFAF
S3150000094001210CAA0620FFF7ABFE0322039B93FBB3
S31500000950F2F14A43991A93421CD0184A7343194834
S315000009601B18BB4218D8194B144900910CA81849FA
S3150000097000F0D2FF012108200CAAFFF791FE154BCB
S3150000098007CC07C307CC07C307CC07C321B0F0BD0C
S31500000990174A72E7164AE1E7084B0029E4D01549E1
S315000009A0E3E7064B002900D170E712496FE7C0461E
S315000009B02C410020F922000008230000E522000057
S315000009C0CDCCCCCC9999991932333333EB22000034
S315000009D0182300008C400020E42200001F230000A2
S315000009E024230000022300002A23000030230000F5
S315000009F0E6220000F022000070B52A49AAB02A4873
S31500000A0000F0E8F929492A4800F0BEF829492A48A1
S31500000A1000F08EFC29492A4800F0E0FA012403265A
S31500000A2094FBF6F37343E21A9C422CD0254D264BD9
S31500000A30264963438B422FD8254B22482A00254955
S31500000A40009002A800F068FF013402A8FFF76CFDD1
S31500000A50FFF742FDFFF754FD652CE1D11E48FFF775
S31500000A6063FDFFF7F8FD00211C4A0800FFF718FE9A
S31500000A70FFF74CFE1A4B1A78002AFCD000221A7097
S31500000A80FFF7D0FEF6E7174DD1E70A22200016A998
S31500000A9000F056FE0B4BD1E7002AF6D1094B1800A1
S31500000AA0CCE7C046CC230000E4400020A42300008D
S31500000AB0C0400020F8230000F84000203824000041
S31500000AC02C410020E5220000CDCCCCCC333333338F
S31500000AD0EB22000035230000E42200003D23000045
S31500000AE0B0400020E622000010B5FFF785FF002089
S31500000AF010BD01614261002070471FB583691B78F4
S31500000B00029100936B461A71036A0393C3696846A0
S31500000B10984705B000BDFFFF70B504008369072044
S31500000B200E0015001856FFF777FB731CA36002230F
S31500000B300720013DE560064DAA781343AB70A36913
S31500000B401856FFF761FB337800202B7070BDC04646
S31500000B5000340A4070B50725C369094A5B680C0072
S31500000B601B781D409B069B0FD05C00F08DFDE84076
S31500000B70044B0121B3FBF0F06043FFF7B9FA70BDF7
S31500000B805025000040420F00F8B581614B69040012
S31500000B90C3618B690D000362EFF31081012383F3B8
S31500000BA01088284B28485A6802405A605B6881F3CF
S31500000BB01088A369254EDA6925485368597831713A
S31500000BC01978244B59706B78E978DB0089000B4360
S31500000BD0A9781778415C0B2049010B4351784900ED
S31500000BE00B43917802220B43DBB2F37000233A43A6
S31500000BF0B270A360E3602361636182333B43B370E9
S31500000C00A2233B43B3702856002803DB2200A97AAF
S31500000C10FFF712FB0520220029792856FFF70CFB67
S31500000C20E2231F43B770A0690121FFF793FF072056
S31500000C30A97928562200FFF7FFFA074B00206360C8
S31500000C40F8BDC046FC6F0440FF7FFFFF00340A403A
S31500000C5054250000FF340A405452415510B5EFF3B5
S31500000C600383103B144A5BB29B009858C36883B158
S31500000C7083691B6953B983681A78104B1A70C36865
S31500000C80013BC36083680133836010BD0023C360EA
S31500000C90FBE70A4B02229C7821001140144203D044
S31500000CA0997891439970F0E7C3698160002BECD085
S31500000CB0FFF723FFE9E7C0468041002000340A40E1
S31500000CC070B5EFF30383103B1B4A5BB29B00985849
S31500000CD01A4A83695178DB69C9B21D78012D15D18D
S31500000CE05479E3B294B107269479B44394715A08BF
S31500000CF09C082A402C40E4001201224320245B0178
S31500000D0023401A43D2B2FFF7F8FE05E0436923B940
S31500000D10C3690422002BF6D170BD036919700369FB
S31500000D20416901330139036141610029F4D1C36985
S31500000D30002BF1D00122E6E78041002000340A4072
S31500000D4070B5EFF303830725103B0E4A5BB29B0099
S31500000D5098580D4A517853799479C9B2AC43947135
S31500000D60C269DBB26AB15A08063D9C082A402C408B
S31500000D70E4001201224320245B0123401A43FFF7BB
S31500000D80BCFE70BD8041002000340A404289024BFF
S31500000D900020DA867047C046FE260A404289024B8A
S31500000DA000209A867047C046FE260A4010B5C269E2
S31500000DB04B1E5478032C04D19279022A01D04B0899
S31500000DC0013B027C0249520052189BB2138010BDAF
S31500000DD000260A4070B50C000B7C01210E009E40D7
S31500000DE0B6B20681446063690500C360A369036106
S31500000DF0EFF3108081F31088174BDA688A43DA60C4
S31500000E00DB6880F31088E1690A78CB79D207D20FC4
S31500000E109B0313438A78501E8241D20213434A78B9
S31500000E200E495200525A092113430D4A9BB21187AB
S31500000E30227C0C4988325200535220006168FFF729
S31500000E40B5FF12206E812056002803DB2A00617C44
S31500000E50FFF7F2F9002070BDFC6F04405825000032
S31500000E60FE260A4000260A4030B585B0EFF303831C
S31500000E70103B134A5BB29B009A585068C369597875
S31500000E80002304391C00022905D8037C0D495B00A8
S31500000E905B5A02349BB2D16881B1156901A804710D
S31500000EA00195022C08D15268064C127C90325200F1
S31500000EB0125B120401329B188360884705B030BD6F
S31500000EC08041002000260A400A22B0FBF2F14A4384
S31500000ED00B01801A1843C0B27047FFFF802370B51C
S31500000EE01C4C5B42E27A0D001343E3720123227B22
S31500000EF013432373237B9B07FCD52868C0B2FFF7F7
S31500000F00E3FF20706868C0B2FFF7DEFF6070A86874
S31500000F10C0B2FFF7D9FFA070AB69DBB2E370E86837
S31500000F20C0B2FFF7D1FF207128690130C0B2FFF7C8
S31500000F30CBFF607168696438C0B2FFF7C5FF012254
S31500000F40A071237B93432373237B9B07D80F002B2E
S31500000F50FADB70BD002C0A40030902000A200F21AB
S31500000F6058430A408018C0B27047FFFF012370B58E
S31500000F700D00194C227B13432373237B9B07FCD55F
S31500000F802078C0B2FFF7E8FF28606078C0B2FFF7AC
S31500000F90E3FF6860A078C0B2FFF7DEFFA860E378E1
S31500000FA0AB612079C0B2FFF7D7FFE8606079C0B2C5
S31500000FB0FFF7D2FF01382861A079C0B2FFF7CCFF56
S31500000FC0012264306861237B93432373237B9B0751
S31500000FD0D80F002BFADB70BD002C0A4070B5CD6926
S31500000FE041604B69040083608B69C360EFF3108036
S31500000FF0012383F310880F4B0F4EDA683240DA6014
S31500001000DB6880F310882A7818250C481201C37A09
S31500001010AB431A4308231343DBB2C3720F200856AF
S31500001020002803DB2200897BFFF706F9044B00202A
S31500001030236070BDFC6F0440FFFF7FFF002C0A4059
S315000010404343545270B5050043680F2018560C00F0
S31500001050FFF7E2F80721094B0F20DA7A8A43144397
S3150000106080221443DC721A7B01318A431A736B683F
S315000010701856FFF7C9F8002070BDC046002C0A407C
S31500001080F7B5EFF30383103B104A5BB29B009C5805
S31500001090A268D2B118260E4D2B7BDFB21E40DB06AE
S315000010A006D5002369460B70E368684601939047AE
S315000010B03F0707D502236A461370E3686846019323
S315000010C0A36898472B7BB3432B73F7BD8041002061
S315000010D0002C0A40EFF31080012383F31088064B9F
S315000010E0196819B9054A1170403111701A68013230
S315000010F01A6080F3108870477C41002040030A4044
S31500001100EFF31081012383F31088074B1A6812B19D
S315000011101A68013A1A601A681AB9044B1A708032B2
S315000011201A7081F3108870477C41002040030A4002
S315000011300B0A1B01C9B25B1803495B005B5A00200E
S315000011409B07DB0F1370704700020A400123C8B2E9
S31500001150834000209BB20AB918001300034A090A0B
S3150000116049018918088100204B81704700000A4018
S3150000117070B50400FFF7AEFF0022FF200A4D23885A
S31500001180934202D8FFF7BCFF70BD6168D300C9184F
S315000011908E880968330A1B0106409B1989B25B00D9
S315000011A00132595392B2EAE700020A4010B5034BE6
S315000011B003600800FFF7DCFF002010BD54524F50BB
S315000011C0012307B521B9431DDA7F03239B1ADBB23E
S315000011D0026B00926A461371C36A6846984707BD58
S315000011E00100002330B5021D0831D377C361CB77E8
S315000011F020310B70C41DE57F0A4902305DB90A4CE7
S31500001200023365782B436370D37FC07F0133D37776
S315000012100870002030BDE377C37F0120D0770B70C4
S31500001220F7E7C04600300A40FF300A4010B5841D7B
S31500001230E3778261027A4161012A05D14368811C04
S315000012405B00CB77C31CDA770022431DDA77FFF702
S31500001250C7FF10BD0200F8B513682F4D5C6A080081
S31500001260A3782E4EEB7063782B71136821785F6834
S31500001270E3789B000B43B7424BD1DBB2AB70417BAB
S31500001280007C40B2FEF7D8FF7F226B7813406B706C
S31500001290022322791343224A93709C226B781343CC
S315000012A06B70EFF31080012383F310881D4B1968D0
S315000012B019B91D4A1170403111701A6801321A604D
S315000012C080F31088FF20268A6569320A12010640DB
S315000012D016499219ADB25200555225892A0A1201B1
S315000012E00540E068521980B252005052EFF3108167
S315000012F0012282F310881A6812B11A68013A1A603C
S315000013001A681AB9084B1A7080321A7081F310885D
S31500001310F8BD08210B43B0E7FF300A40A086010064
S3150000132000300A407C41002040030A4000020A4087
S3150000133070B501608B68040043600B7B0372CB6958
S31500001340C3620B6A0363EFF31080012383F31088F3
S315000013500C4B0D4D5A682A405A605B6880F3108822
S315000013602000FFF777FF0020631D6061A061E06148
S31500001370D877A31DD8770233D877E31DD877034BE8
S31500001380E36070BDFC6F0440FFFBFFFF4349495219
S3150000139070B5EFF303830C24103B314A31495BB23D
S315000013A09B0098584B78DAB22340082B04D053B2EE
S315000013B0002B01DA53060DD5012314001C401A42F6
S315000013C008D102000832D377274A846151780B434B
S315000013D0537070BDC46983699C4228D2431DDB7F6C
S315000013E033B943691B5D0B70C3690133C361F0E711
S315000013F00200283215781C4B097845B90121117075
S315000014002C2259789143083A0A435A70E1E7426917
S315000014101155C26981690132C2618A4204D12C2206
S3150000142059789143043AEFE720225978ECE70121F5
S315000014300A4206D003000833D97FC9B2FFF7C0FEBF
S31500001440C7E7831DDA7F084B0AB95A78DCE7022220
S315000014505C7822435A70C31DD9770133ECE7C04646
S315000014608041002000300A40FF300A4040F20A2244
S3150000147030B50F4B995C8909814218D040F20B2494
S3150000148001211D5D29431955022805D0995C89095A
S31500001490022901D08021995440F20A2240F20B2100
S315000014A08001C0B2985401205A5C82435A5430BD20
S315000014B000C07E4040F623020F4B995C0F4A890715
S315000014C009D540F622015B5C1BB193680C4A136098
S315000014D070471369FAE740F62001595C890705D57C
S315000014E040F61901595C5368CB40EFE740F6180106
S315000014F0595C1368F8E7C04600E001405C400020F4
S315000015002C420020F8B540F623050127214C665DE4
S31500001510BE436655665DB607F70FBC46002EF9DB7F
S315000015200127B84224D840F62105665DBE436655BC
S31500001530665DB607FCD4012640F6200588B9605DD5
S31500001540B0436055605D8007FCD440F61800215416
S3150000155040F61901625440F61A02A354FFF7AAFF97
S31500001560F8BD615D0E436655615D8907FCD5EFE701
S3150000157040F6220102280AD167540121605D014329
S3150000158040F623006155215C8907FCD5E0E76046FB
S315000015906054F2E700E001407047FFFF40F6FE03AB
S315000015A070B5304A304C0021E252304B304AD96097
S315000015B01A60304A5A6048F200029A601A61FFF7D0
S315000015C079FF40F600031A22E2542433E35CD9B2D1
S315000015D0102B21D0284B2948DA680240DA60DA68F5
S315000015E07F252748C27A2A40C2728022D868120410
S315000015F00243DA60DB6859B940F60C05635D3BB916
S315000016000131C8206155FEF773FD635D012BFCD1E6
S3150000161040F624031022E25440F60C03E25CDAB1F1
S315000016200022E2540320FFF721FF002240F60803C0
S31500001630E25440F61202A35CDB07FCD5002040F61C
S315000016400A030200E05401000300FFF75BFF40F6C7
S31500001650FE030C4AE25270BD40F2E830FFF79CFFF1
S31500001660E0E7C04603A5FFFF00E001405C40002024
S315000016700048E80100093D00FC6F0440FFFF7FFFC2
S31500001680002C0A4000A5FFFF014B8000C0587047A0
S315000016905C4000207047FFFF10B50B4A030011683D
S315000016A009B90A4911600321106803338B430849BD
S315000016B0C3188B4206D900F057F90C2303600120AA
S315000016C0404210BD1360FCE728420020784300200A
S315000016D0784300207047FFFFF0B54FF6FF75040012
S315000016E0CE462C40474615400E002900994680B547
S315000016F0130C0700000C61434543584363430C0C2D
S315000017005B19E4188C46A54203D980235B029846F0
S315000017104044230C61461B184FF6FF7008404946AB
S3150000172056437943240489192018C918C0BCB94600
S31500001730B046F0BD10B50A22002100F0ADF810BD8C
S31500001740931E10B50C00222B04D900231C000B702D
S31500001750200010BD0A2A09D1002807DA2D230B70B4
S3150000176001214042611800F0A3F8F1E70021F9E7F2
S31500001770F0B587B0059002910392242B22D8012B55
S3150000178020D043480825844608006646047801317F
S31500001790375D3E002E402F42F6D12D2C19D10C7804
S315000017A0811C0120019010251800A843E8B9302CAF
S315000017B015D120260878B043582810D14C7802312C
S315000017C0102312E000F0D0F816230360002007B0C3
S315000017D0F0BD01962B2CE6D10C78811CE3E7002B9B
S315000017E0EED10A33302C00D1023B0198294D46191F
S315000017F0B6FBF3F7180000257843301A049028004A
S31500001800302252429446A4446246092A12D86446BB
S31500001810A34224DD6A1C0AD001256D42874206D305
S3150000182002D1049AA24217DB0125584320180C78EE
S315000018300131E5E7412252429446A4446246192A00
S3150000184001D8373CE4E7612252429446A4446246FA
S31500001850192A04D8573CDBE701256D42E7E76B1CE4
S3150000186009D12223059A30001360039B002BAED0CA
S315000018704B1E029307E0019B03B14042039B002BE2
S31500001880A5D0002DF4D1029B039A13609FE7C046B2
S3150000189069250000FFFFFF7F10B513000A00010055
S315000018A002480068FFF764FF10BDC04604400020F0
S315000018B0F0B50C0015008BB02522164906006846C7
S315000018C000F062F8611EAA1E00238C46222A04D963
S315000018D023701C0020000BB0F0BDB6FBF5F02A000B
S315000018E06F464243B21ABA5C674619000133FA548E
S315000018F0320006009542F0D90022E25422000B0085
S31500001900C81A8342E6DD1078E55C1570E0540132B2
S31500001910013BF5E7492300000EB400B50B499CB026
S315000019201DAB02900690079104910948094904CB22
S315000019300591006802A9019300F092F90022029B2A
S315000019401A701CB008BC03B01847C046FFFFFF7FE3
S31500001950044000200802FFFF03008218934200D1D2
S31500001960704719700133F9E7014B18687047C04694
S31500001970044000207047704703000A7801311A704E
S315000019800133002AF9D17047002310B59A4200D1DD
S3150000199010BDCC5CC4540133F8E70023C25C0133AC
S315000019A0002AFBD1581E704770B505000C0079B1AE
S315000019B0043C2368002B00DAE418280000F0DEF867
S315000019C01C4A13682BB963601460280000F0DEF827
S315000019D070BDA34208D9206821188B42F3D119683B
S315000019E05B6809182160EEE71A005B680BB1A34239
S315000019F0FAD911685018A0420BD12068091850185E
S31500001A0011608342E1D118685B6841181160536028
S31500001A10DBE7A04202D90C232B60D6E72068211809
S31500001A208B4203D119685B680918216063605460B2
S31500001A30CBE7C0467443002070B50F4E0D003168E9
S31500001A40040011B900F08EFB30602900200000F080
S31500001A5089FB431C03D101256D42280070BD032379
S31500001A60C51C9D43A842F8D0291A200000F07AFB35
S31500001A700130F2D1EFE7C04670430020F7B50322EC
S31500001A80CB1C9343083305001F000C2B34D20C27C4
S31500001A90B94233D8384E280000F070F833681C007D
S31500001AA0002C2FD139002800FFF7C6FF0400431C85
S31500001AB05FD134680094009B002B4AD1002C52D091
S31500001AC023682800E3180099019300F04BFB019B63
S31500001AD0834248D123682800FF1A3900FFF7ACFF7C
S31500001AE0013040D02368DB19236033685A68002A26
S31500001AF033D1009B336019E0002BC9DA0C232B602D
S31500001B000020FEBD2168C91B20D40B290AD9E21981
S31500001B102760A34204D1326063681160536005E018
S31500001B205A60F9E76268A3420ED13260280000F0DD
S31500001B302DF8200007220B30231D9043C21A98422D
S31500001B40DFD01B1AA350DCE75A60EFE72300646876
S31500001B50A6E7009C63680093ADE71A005B68A342A2
S31500001B60FBD10023DAE70C2328002B6000F00EF8E7
S31500001B70C6E70760DAE7C0467443002010B502489E
S31500001B80FFF7F8FE10BDC0466C43002010B50248B2
S31500001B90FFF7F1FE10BDC0466C430020F0B58E681D
S31500001BA085B01F000C000B6802900392BE4231D82C
S31500001BB00C21625E40F280410A4229D0032021694D
S31500001BC05B1A0193636943430198DD0FED187B1C93
S31500001BD01B186D10AB4200D91D00520529D52900EE
S31500001BE00298FFF74BFF060000282DD0019A2169C5
S31500001BF0FFF7CAFEA289194B1A4080231343A3811B
S31500001C00019B2661F61826603E006561ED1AA56007
S31500001C10BE4200D93E0032000399206800F090FAD7
S31500001C200020A3689B1BA36023689B19236005B053
S31500001C30F0BD2A00029800F0B0FA06000028DFD1B5
S31500001C4021690298FFF7B0FE0C230120029A404258
S31500001C501360A28934331343A381E8E77FFBFFFFB8
S31500001C60F0B5A1B0039004921D008B890F001B06EE
S31500001C700FD50B696BB94021FFF700FF386038615B
S31500001C8028B90C23039A136001204042CFE0402379
S31500001C907B61002308AC6361203363761033A3763F
S31500001CA00795049E33780BB1252B46D1049BF51A74
S31500001CB09E420BD02B003900049A0398FFF76EFF63
S31500001CC0013000D1AEE063695B1963613378002BA4
S31500001CD000D1A7E0012200235242626004A95432D7
S31500001CE0521801362360E360A3601370A3650522D2
S31500001CF03178544800F046FA751C00BB2268D306BA
S31500001D0004D5532304A95B1820211970130704D5A1
S31500001D10532304A95B182B21197033782A2B17D06B
S31500001D203500002140F20A0C0126E3682A78681C77
S31500001D30303A092A4ED989B917E00136B2E7414B44
S31500001D402268C01A0123834013432E002360CEE786
S31500001D50079B191D1B680791002B01DB0B9304E001
S31500001D605B42E3600223134323602B782E2B0CD1B6
S31500001D706B782A2B34D1079B02351A1D1B680792F4
S31500001D80002B01DA01235B4209932F4E0322300018
S31500001D90297800F0F7F930B14023801B8340226890
S31500001DA001351343236029786B1C062227480493C8
S31500001DB0217600F0E7F900283BD0254B33BB0722FC
S31500001DC0079B07339343083307936369059A9B1868
S31500001DD0636166E761464B43050031009B18A5E742
S31500001DE0002340F20A0C1A000126013563602978A7
S31500001DF0681C3039092903D9002BC6D00992C4E7DB
S31500001E0063465A43050033005218F0E707AB0093C8
S31500001E103A0021000F4B039800E000BF0590059B98
S31500001E200133D2D1BB890D985B0600D52CE721B0D2
S31500001E30F0BD07AB00933A002100064B039800F073
S31500001E4079F8EBE76E230000742300007823000086
S31500001E50000000009D1B0000F7B5160001938A687C
S31500001E600B690C000090934200DA130022003360E5
S31500001E70433212780AB10133336023689B0602D5D8
S31500001E803368023333602268062315001D401A4268
S31500001E9027D0230043331B785A1E934122689206AB
S31500001EA030D4220001990098089D4332A84701309A
S31500001EB025D00622236800251340042B05D133685C
S31500001EC0E568ED1AEB43DB171D40A36822699342D0
S31500001ED001DD9B1AED180026B54220D1002010E046
S31500001EE00135E36832689B1AAB42D2DD220001233A
S31500001EF001990098089F1932B8470130F0D10120A6
S31500001F004042FEBD3020E1184331087021005A1CC2
S31500001F1045310978A218433202331170C1E7220015
S31500001F20012301990098089F1A32B8470130E6D07C
S31500001F300136D1E7F0B50E0089B0049203900593FF
S31500001F400C00097E0E9A4336782907D8622909D8EB
S31500001F50002900D1B7E0582900D1A0E0250042357C
S31500001F60297022E0080063381528F7D800F04AF9EE
S31500001F7016001F00F6FFF6FFF6FFF6FF1F00F6FF3E
S31500001F80F6FFF6FFF6FF9E0034004300F6FFF6FF6D
S31500001F90AF00F6FF3400F6FFF6FF47002500136892
S31500001FA04235191D1B6811602B7001239CE01368D4
S31500001FB02068191D050609D51B681160002B02DA79
S31500001FC02D225B4232700A225B4832E01B681160A8
S31500001FD04006F3D51BB2F1E71068256808C82F063E
S31500001FE002D46D0600D59BB21060082252486F29B4
S31500001FF01BD00A2219E0202321680B432360782195
S315000020004E482300453319701568216808CD0F0620
S3150000201002D44F0600D59BB21560CA0702D520220E
S315000020200A432260002B3CD01022210000254331B8
S315000020300D706168A160002908DB40F2040C674658
S3150000204025681943BD432560350061B13500B3FBF2
S31500002050F2FC61465143591A415C013D2970190051
S3150000206063468A42F3D9082A09D12368DB0706D5D5
S31500002070626823699A4202DC3023013D2B70761B8D
S315000020802661059B210000930398049B07AAFFF78E
S31500002090E3FE01302CD10120404209B0F0BD2648B4
S315000020A0AFE7202122688A432260BDE713682568CE
S315000020B0181D616910601B682F0601D5196002E0C2
S315000020C06D06FBD51980002335002361D9E7136817
S315000020D0191D11601D6800212800626800F052F881
S315000020E008B1401B60606368236100233370C8E752
S315000020F02A00236904990398059DA8470130CAD090
S3150000210023689B0715D4079BE0689842C5DA180038
S31500002110C3E72200012304990398059E1932B047AC
S315000021200130B8D00135E368079A9B1AAB42F0DC60
S31500002130E9E70025F7E7C0467F230000902300006B
S3150000214010B5884202D98B18984208D300239A42C8
S3150000215007D0CC5CC4540133F9E78B5C8354013A55
S31500002160FBD210BD002370B5054D040008002B609E
S31500002170FFF792FA431C02D12B6803B1236070BDAE
S3150000218068430020C9B28218904201D100207047EE
S3150000219003788B42FBD00130F6E7F7B506000C005A
S315000021A0150029B91100FFF769FC04002000FEBDE7
S315000021B01AB9FFF7F9FB2C00F8E700F01BF8070047
S315000021C0854202D84308AB42F0D329003000FFF71E
S315000021D055FC019008B9019CE8E72A00BD4200D9E8
S315000021E03A0021000198FFF7CFFB21003000FFF7EE
S315000021F0DBFBF0E70B1F1B68181F002B01DA0B58DF
S31500002200C018704703B47146490840004900095E8A
S3150000221049008E4403BC70474275696C7420776927
S3150000222074682052656E6573617320416476616ED1
S3150000223063656420466C657869626C6520536F66D9
S315000022407477617265205061636B6167652076659E
S315000022507273696F6E20352E332E3000352E332E75
S315000022603000000000000305F8B5C046F8BC08BC05
S315000022709E467047F8B5C046F8BC08BC9E467047F7
S31500002280456E7465722074696D652076616C75653E
S315000022902E000A202020202059656172203E200051
S315000022A00A20202020204D6F6E7468203E20000AF0
S315000022B02020202020446179203E20000A20202072
S315000022C02020486F7572203E20000A202020202002
S315000022D04D696E203E20000A202020202053656391
S315000022E0203E20000A0046697A7A0042757A7A0012
S315000022F02020202020202020002534642F25303265
S31500002300642F253032642000253032643A2530327D
S31500002310643A253032642000257325732573002521
S3150000232034642F00253032642F00253032643A00A1
S315000023302530326400257325732573200048656CAB
S315000023406C6F2052413045310030313233343536EE
S315000023503738396162636465666768696A6B6C6D94
S315000023606E6F707172737475767778797A00232D33
S31500002370302B2000686C4C00656667454647003088
S3150000238031323334353637383941424344454600D5
S3150000239030313233343536373839616263646566D5
S315000023A000FFFFFF000300000229022800000227A9
S315000023B00000000000000000790500000000000099
S315000023C0C4230000000100000040002000000000BF
S315000023D03F00000009000000000000000003130099
S315000023E09905000000000000EC2300000000000238
S315000023F0060001000001FFDF00000000A0860100CA
S3150000240027000000010200001A0000000000000082
S3150000241000000000D9050000000000002024000094
S3150000242001554C00010000000D09000044010000A8
S315000024300E0900004401000000000000000000003A
S315000024400000000000DF012000000000F906000087
S31500002450000000005824000000FFFFFF1D000000E0
S3150000246068240000000000000500000008000000CD
S315000024700400000009000000000000000A0000003F
S31500002480008000000B000000008000000C0000002F
S31500002490008000000D000000008000000E0000001B
S315000024A0004000000F0000001000000000010000C6
S315000024B010000000010100001000000002010000F1
S315000024C010000000030100000001000008010000E8
S315000024D01000000009010000100000000A010000C1
S315000024E0100000000C010000004000000002000087
S315000024F010000000010200000000000006020000BB
S3150000250000020000070200000402000008020000AA
S31500002510000400000C020000040400000D0200008C
S31500002520000000000E020000000000000F02000084
S315000025300001000000030000040100000704000081
S31500002540400000000D090000400000000E090000D8
S315000025500203000100010302000000000610001043
S3150000256004010C020C02080100202020202020205B
S31500002570202028282828282020202020202020202D
S31500002580202020202020202020881010101010103D
S315000025901010101010101010100404040404040489
S315000025A00404041010101010101041414141414123
S315000025B00101010101010101010101010101010105
S315000025C00101010110101010101042424242424215
S315000025D002020202020202020202020202020202D5
S315000025E0020202021010101020000000000000007D
S315000025F000000000000000000000000000000000D5
S3150000260000000000000000000000000000000000C4
S3150000261000000000000000000000000000000000B4
S3150000262000000000000000000000000000000000A4
S315000026300000000000000000000000000000000094
S315000026400000000000000000000000000000000084
S315000026500000000000000000000000000000000074
S31500002660000000000000000000FFFFFF0000000067
S31500002670208B0000084000200000000030420020AF
S3150000268098420020004300200000000000000000E7
S315000026900000000000000000000000000000000034
S315000026A00000000000000000000000000000000024
S315000026B00000000000000000000000000000000014
S311000026C00000000089040000590400001E
S31501010018FFFFFFFFFFFFFFFFFFFFFFFFFFFFFFFFE0
S31101010028FFFFFFFFFFFFFFFFFFFFFFFFD0
S70500000251A7
